00000000000000000000000000000000000000000000000000000000000000000000000000000000000000000000000000000000000000000000000000000000000000000000000000000000000000000000000000000000000000000000000000000000000000000000000000000000000000000000000000000000000000000000
00000000000000000000000000000000000000000000000000000000000000000000000000000000000000000000000000000000000000000000000000000000000000000000000000000000000000000000000000000000000000000000000000000000000000000000000000000000000000000000000000000000000000000000
00000000000000000000000000000000000000000000000000000000000000000000000000000000000000000000000000000000000000000000000000000000000000000000000000000000000000000000000000000000000000000000000000000000000000000000000000000000000000000000000000000000000000000000
0000                                 00000000000000000000000000000                                  0000000000000                   000000000000000000000000000000                  0000000000000                   0000000000000                               0000
0000                         8888888800000000000000000000000000000C                                 0000000000000                   000000000000000000000000000000J                L0000000000000                    000000000000                             OO0000
0000                       8800000000000000000000000000000000000000CC                               0000000000000                   0000000000000000000000000000000J              L00000000000000                    00000000000                            OO000000
00002                    88000000000000000000000000000000000000000000C                              0000000000000                   00000000000000000000000000000000J             000000000000000                    00000000000                           O00000000
00000                   8000000000000000000000000000000000000000000000C                            C0000000000000F                  000000000000000000000000000000000            L000000000000000N                   0000000000                           O000000000
000002                 800000000000000000000000000000000000000000000000C                           000000000000000                  000000000000000000000000000000000J          L00000000000000000                    00000000                            0000000000
000000               880000000000000000000000000000000000000000000000000C                         C000000000000000F                 0000000000000000000000000000000000          000000000000000000N                     0000                             O0000000000
000000              80000000000000000000000000000000000000000000000000000C                       C00000000000000000                  000000000000000000000000000000000         L0000000000000000000N                                                     00000000000
000000             8000000000000000000000000000000000000000000000000000000C                     C000000000000000000F                 000000000000000000000000000000000         000000000000000000000N                                                    00000000000
000000            800000000000000000000000000000000000000000000000000000000C                   C00000000000000000000F                000000000000000000000000000000000         0000000000000000000000N                                                  O00000000000
00000            80000000000000000000000000000000000000000000000000000000000CC                C0000000000000000000000F               00000000000000000000000000000000          00000000000000000000000N                                                 000000000000
0000             0000000000000000000000000000000000000000000000000000000000000C              C000000000000000000000000F               000000000000000000000000000000           000000000000000000000000NN                                               000000000000
0000             00000000000000000000000000000000000000000000000000000000000000CC          CC00000000000000000000000000F               0000000000000000000000000000            00000000000000000000000000N                                             O000000000000
0000            80000000000000000000000000000000000000000000000000000000000000000CCC     CC00000000000000000000000000000F               00000000000000000000000000             000000000000000000000000000N                                            0000000000000
0000            00000000000000000000000000000000000000000000000000000000000000000000CCCCC00000000000000000000000000000000FF               0000000000000000000000                000000000000000000000000000N                                          O0000000000000
0000            00000000000000000000000000000000000000000000000000000000000000000000000000000000000000000000000000000000000F                  0000000000000000                  0000000000000000000000000000                                         O00000000  0000
0000            000000000000000000000000000000000000000000000000000000000000000000000000000000000000000000000000000000000000F                         00                        0000000000000000000000000000                                       OO00000000   0000
0000             000000000000000000000000000000000000000000000000000000000000000000000000000000000000000000000000000000000000F                                                   000000000000000000000000000                                      O000000000    0000
0000             0000000000000000000000000000000000000000000000000000000000000000000000000000000000000000000000000000000000000F                                                  000000000000000000000000000                                    OO0000000000    0000
0000             00000000000000000000000000000000000000000000000000000000000000000000000000000000000000000000000000000000000000                                                   00000000000000000000000000                                   O000000000000    0000
0000             00000000000000000000000000000000000000000000000000000000000000000000000000000000000000000000000000000000000000F                                                  00000000000000000000000000                                  O0000000000000    0000
0000              00000000000000000000000000000000000000000000000000000000000000000000000000000000000000000000000000000000000000                                                  00000000000000000000000000                                 O00000000000000    0000
0000              00000000000000000000000000000000000000000000000000000000000000000000000000000000000000000000000000000000000000                                                   0000000000000000000000000                                O000000000000000    0000
0000               0000000000000000000000000000000000000000000000000000000000000000000000000000000000000000000000000000000000000F                                                  000000000000000000000000                                O0000000000000000    0000
0000               00000000000000000000000000000000000000000000000000000000000000000000000000000000000000000000000000000000000000                                                   00000000000000000000000                               O00000000000000000T   0000
0000                0000000000000000000000000000000000000000000000000000000000000000000000000000000000000000000000000000000000000                                                   0000000000000000000000                               O0000000000000000000   0000
0000                 000000000000000000000000000000000000000000000000000000000000000000000000000000000000000000000000000000000000                                                    000000000000000000000                              O00000000000000000000T  0000
0000                  00000000000000000000000000000000000000000000000000000000000000000000000000000000000000000000000000000000000                                                     0000000000000000000                              O0000000000000000000000  0000
0000                    000000000000000000000000000000000000000000000000000000000000000000000000000000000000000000000000000000000                                                        00000000000000                               O00000000000000000000000T 0000
0000                                                                                                 0000000000000000000000000000                                                                                                    O0000000000000000000000000T0000
0000                                                                                                    0000000000000000000000000                                                                                                    0000000000000000000000000000000
0000                                                                                                      00000000000000000000000                                                                                                   O0000000000000000000000000000000
0000                                                                                                       0000000000000000000000                                                                                                  O00000000000000000000000000000000
00003333333                                                                                                 000000000000000000000                            GGGGGGGGGGGGGGGG                                                     O000000000000000000000000000000000
0000000000033                                                                                                00000000000000000000                          GG0000000000000000GG                                                 OO0000000000000000000000000000000000
0000000000000                                                                                                 0000000000000000000                         G00000000000000000000G                                               O000000000000000000000000000000000000
0000000000000                                                                                                  000000000000000000G                       G0000000000000000000000G                                             O0000000000000000000000000000000000000
0000000000000                                                                                                   000000000000000000                     GG000000000000000000000000G                                           O00000000000000000000000000000000000000
000000000000                                                                                                     00000000000000000G                   G000000000000000000000000000G                                         O000000000000000000000000000000000000000
00000000000                                                                                                       00000000000000000G                 G00000000000000000000000000000G                                       O0000000000000000000000000000000000000000
0000000000                                                                                                         00000000000000000G              GG0000000000000000000000000000000G                                     O00000000000000000000000000000000000000000
000000000                                                                                                          000000000000000000G            G0000000000000000000000000000000000                                    O000000000000000000000000000000000000000000
00000000                                                                                                            000000000000000000GG        GG00000000000000000000000000000000000G                                  O0000000000000000000000000000000000000000000
000000                                                                                                              00000000000000000000GGGGGGGG00000000000000000000000000000000000000G                                O00000000000000000000000000000000000000000000
0000                                                                                                                 000000000000000000000000000000000000000000000000000000000000000000G                              O000000000000000000000000000000000000000000000
0000                                                                                                                 0000000000000000000000000000000000000000000000000000000000000000000G                             0000000000000000000000000000000000000000000000
0000                                                                                                                 00000000000000000000000000000000000000000000000000000000000000000000G                           O0000000000000000000000000000000000000000000000
0000                                                                                                                  00000000000000000000000000000000000000000000000000000000000000000000G                          00000000000000000000000000000000000000000000000
0000                                                                                                                  000000000000000000000000000000000000000000000000000000000000000000000GGG                       00000000000000000000000000000000000000000000000
0000                                                                                                                   00000000000000000000000000000000000000000000000000000000000000000000000GGGGGGGGGG             000000000000000000000000000000000000000000 0000
0000                                                                                                                   000000000000000000000000000000000000000000000000000000000000000000000000000000000GG           000000000000000000000000000000000000000000 0000
0000                                                                                                                   00000000000000000000000000000000000000000000000000000000000000000000000000000000000GG         00000000000000000000000000000000000000000  0000
0000                                                                                                                    000000000000000000000000000000000000000000000000000000000000000000000000000000000000           000000000000000000000000000000000000000  0000
0000                                       AAA                                                                          000000000000000000000000000000000000000000000000000000000000000000000000000000000000G           00000000000000000000000000000000000000  0000
0000                                    AAA000AAA                                                                       0000000000000000000000000000000000000000000000000000000000000000000000000000000000000            000000000000000000000000000000000000   0000
0000                                   A000000000AA                                                                      00000000000000000000000000000000000000000000000000000000000000000000000000000000000               0000000000000000000000000000000000   0000
0000                                  A000000000000A                                                                     00000000000000000000000000000000000000000000000000000000000000000000000000000000000                000000000000000000000000000000000   0000
0000                                 A00000000000000A                              AAAAA                                  000000000000000000000000000000000000000000000000000000000000000000000000000000000                   0000000000000000000000000000000U  0000
0000                                 0000000000000000A                          AAA00000AAA                                0000000000000000000000000000000000000000000000000000000000000000000000000000000                     0000000000000000000000000000000  0000
0000                                A00000000000000000AA                      AA00000000000AA                               00000000000000000000000000000000000000000000000000000000000000000000000000000                       000000000000000000000000000000  0000
0000                                00000000000000000000A                    A000000000000000A                                0000000000000000000000000000000000000000000000000000000000000000000000000                           0000000000000000000000000000U 0000
0000                                000000000000000000000A                 AA00000000000000000A                                                                                                                                    0000000000000000000000000000U0000
0000                                0000000000000000000000A               A00000000000000000000A                                                                                                                                    00000000000000000000000000000000
0000                                00000000000000000000000AA           AA0000000000000000000000A                                                                                                                                    0000000000000000000000000000000
0000                                0000000000000000000000000AAA     AAA0000000000000000000000000A                                                                                                                                   0000000000000000000000000000000
0000                                0000000000000000000000000000AAAAA00000000000000000000000000000A                                                                                                                                   000000000000000000000000000000
0000                                000000000000000000000000000000000000000000000000000000000000000AA                                                                                                                                  00000000000000000000000000000
00004                               00000000000000000000000000000000000000000000000000000000000000000A                                                                                                                                 00000000000000000000000000000
000004                             4000000000000000000000000000000000000000000000000000000000000000000A                                                                                                                                 0000000000000000000000000000
0000004                            00000000000000000000000000000000000000000000000000000000000000000000A                                                                                                                                0000000000000000000000000000
00000004                          4000000000000000000000000000000000000000000000000000000000000000000000A                                                                                                                               0000000000000000000000000000
000000004                        400000000000000000000000000000000000000000000000000000000000000000000000A                                                                                                                              0000000000000000000000000000
000000000                        0000000000000000000000000000000000000000000000000000000000000000000000000A                                                                                                                             0000000000000000000000000000
0000000004                      400000000000000000000000000000000000000000000000000000000000000000000000000A                                                                                                                            0000000000000000000000000000
00000000004                    40000000000000000000000000000000000000000000000000000000000000000000000000000A                                                                                                                           0000000000000000000000000000
000000000004                  4000000000000000000000000000000000000000000000000000000000000000000000000000000                                                                                                                          P0000000000000000000000000000
0000000000004                 0000000000000000000000000000000000000000000000000000000000000000000000000000000                                                                                                                          00000000000000000000000000000
00000000000004               40000000000000000000000000000000000000000000000000000000000000000000000000000000A                                                                                                                        P00000000000000000000000000000
000000000000004             4000000000000000000000000000000000000000000000000000000000000000000000000000000000                                                         HHHHHHHH                                                       000000000000000000000000000000
0000000000000004           40000000000000000000000000000000000000000000000000000000000000000000000000000000000                                                       HH00000000HH                                                    P000000000000000000000000000000
000000000000000044         00000000000000000000000000000000000000000000000000000000000000000000000000000000000                                                     HH000000000000HH                                                PP0000000000000000000000000000000
0000000000000000004       400000000000000000000000000000000000000000000000000000000000000000000000000000000000                                                    H0000000000000000H                                             PP000000000000000000000000000000000
000000000000000000044    4000000000000000000000000000000000000000000000000000000000000000000000000000000000000                                                   H000000000000000000H                                          PP00000000000000000000000000000000000
00000000000000000000044440000000000000000000000000000000000000000000000000000000000000000000000000000000000000                                                  H00000000000000000000HH                                       P0000000000000000000000000000000000000
0000000000000000000000000000000000000000000000000000000000000000000000000000000000000000000000000000000000000                                                  H00000000000000000000000                                      P00000000000000000000000000000000000000
0000000000000000000000000000000000000000000000000000000000000000000000000000000000000000000000000000000000000                                                  000000000000000000000000H                                    P000000000000000000000000000000000000000
00000000000000000000000   00000000000000000000000000000000000000000000000000000000000000000000000000000000000                                                  0000000000000000000000000H                                   0000000000000000000000000000000000000000
0000000000000000000000      0000000000000000000000000000000000000000000000000   0000000000000000000000000000                                                   00000000000000000000000000H                                  0000000000000000000000000000000000000000
000000000000000000000        000000000000000000000000000000000000000000000          000000000000000000000000                                                   000000000000000000000000000H                                 0000000000000000000000000000000000000000
00000000000000000000          000000000000000000000000000000000000000000               00000000000000000000                                                     000000000000000000000000000H                                0000000000000000000000000000000000000000
0000000000000000000             00000000000000000000000000000000000000                   00000000000000000                                                      0000000000000000000000000000H                               0000000000000000000000000000000000000000
0000000000000000000              000000000000000000000000000000000000                      00000000000000                                  WW                    0000000000000000000000000000H                               000000000000000000000000000000000000000
000000000000000000                000000000000000000000000000000000                          0000000000                                 WWW00WW                   0000000000000000000000000000H                               00000000000000000000000000000000000000
00000000000000000                  0000000000000000000000000000000                                                                    WW0000000W                   0000000000000000000000000000H                                     0000000000000000000000000000000
00000000000000000                   00000000000000000000000000000                                                                    W0000000000                    0000000000000000000000000000                                        0000000000000000000000000000
0000000000000000                     000000000000000000000000000                                                                    W00000000000W                    000000000000000000000000000H                                         00000000000000000000000000
0000000000000000                     000000000000000000000000000                                                                   W0000000000000                    0000000000000000000000000000H                                         00000000000000000000 0000
0000000000000000                      0000000000000000000000000                                                                   W00000000000000                     0000000000000000000000000000H                                          00000000000000000  0000
000000000000000                        00000000000000000000000                                                                  WW000000000000000                      0000000000000000000000000000H                                          000000000000000   0000
000000000000000                         0000000000000000000000                                                                 W00000000000000000                       0000000000000000000000000000H                                           000000000000    0000
000000000000000                           0000000000000000000                                                                 W000000000000000000W                      00000000000000000000000000000                                            0000000000     0000
000000000000000                            000000000000000000                                                               WW00000000000000000000                       0000000000000000000000000000H                                             000000       0000
000000000000000                             0000000000000000                                                               W0000000000000000000000                       00000000000000000000000000000                                                          0000
00000000000000                                00000000000000                                                             WW00000000000000000000000                        0000000000000000000000000000                                                          0000
00000000000000                                 0000000000000                                                            W0000000000000000000000000                        0000000000000000000000000000                                                          0000
00000000000000                                   0000000000                                                           WW00000000000000000000000000                        000000000000000000000000000                                                           0000
00000000000000                                     00000000                                                        WWW0000000000000000000000000000                        000000000000000000000000000                                                           0000
00000000000000                                       000000                                                      WW0000000000000000000000000000000                         0000000000000000000000000                                                            0000
00000000000000                                         0000                                                  WWWW000000000000000000000000000000000                         000000000000000000000000                                                             0000
00000000000000                                           00B                                              WWW0000000000000000000000000000000000000                         00000000000000000000000                                                              0000
00000000000000                                           000BB                                         WWW0000000000000000000000000000000000000000                         000000000000000000000                                                                0000
00000000000000                                            0000BB                                     WW0000000000000000000000000000000000000000000                         00000000000000000000                                                                 0000
00000000000000                                            000000BB                                 WW00000000000000000000000000000000000000000000                          000000000000000000                                                                   0000
00000000000000                                            00000000BB                              W0000000000000000000000000000000000000000000000                         K00000000000000000                                                                    0000
00000000000000                                            0000000000BB                           W00000000000000000000000000000000000000000000000                         0000000000000000                                                                      0000
00000000000000                                            000000000000BB                        W000000000000000000000000000000000000000000000000                        K000000000000000                                                                       0000
0000000000000                                             00000000000000B                       000000000000000000000000000000000000000000000000                         000000000000000                                                                        0000
000000000000                                              000000000000000B                     W000000000000000000000000000000000000000000000000                        K000000000000000                           MMMMMMMM                                     0000
00000000000                                               0000000000000000                     000000000000000000000000000000000000000000000000                        K000000000000000                          MM00000000MM                           RRRRR   0000
0000000000                                                0000000000000000B                    00000000000000000000000000000000000000000000000                        K0000000000000000                         M000000000000M                         R00000R  0000
00000000                                                   0000000000000000                    0000000000000000000000000000000000000000000000                         00000000000000000                        M00000000000000M                       R0000000R 0000
0000000                                                    000000000000000                      00000000000000000000000000000000000000000000                         K00000000000000000                        0000000000000000M                     R000000000R0000
000000                                                      00000000000000                      0000000000000000000000000000000000000000000                          000000000000000000M                      M00000000000000000                     000000000000000
0000                    VV                                   000000000000                        00000000000000000000000000000000000000000                          K0000000000000000000                     M000000000000000000M                    000000000000000
0000                  VV00VVV                                 000000000                           00000000000000000000000000000000000000                            00000000000000000000M                   M00000000000000000000                    000000000000000
0000                 V0000000VV                                                                    00000000000000000000000000000                                    000000000000000000000M                 M000000000000000000000                   R000000000000000
0000                 0000000000V                                                                    0000000000000000000000000                                       0000000000000000000000M               M0000000000000000000000                   0000000000000000
0000                V00000000000V                                                                    0000000000000000000000                                         00000000000000000000000MM           MM00000000000000000000000                   0000000000000000
0000                0000000000000V                                                                    00000000000000000000                                          0000000000000000000000000MMM     MMM0000000000000000000000000                   0000000000000000
0000                00000000000000V                                                                    00000000000000000                                            0000000000000000000000000000MMMMM0000000000000000000000000000                   0000000000000000
0000                000000000000000V                                                                    000000000000000                                              000000000000000000000000000000000000000000000000000000000000                   0000000000000000
0000                0000000000000000V                                                                     00000000000                                                000000000000000000000000000000000000000000000000000000000000                   0000000000000000
0000                00000000000000000V                                                                      0000000                                                  000000000000000000000000000000000000000000000000000000000000Q                 Q0000000000000000
0000               V000000000000000000V                                                                                                                               000000000000000000000000000000000000000000000000000000000000                 00000000000000000
0000               00000000000000000000V                                                                                                                               00000000000000000000000000000000000000000000000000000000000Q               Q00000000000000000
0000               000000000000000000000VV                                                                                                                              00000000000000000000000000000000000000000000000000000000000Q             Q000000000000000000
0000               00000000000000000000000V                                                                                                                              00000000000000000000000000000000000000000000000000000000000Q           Q0000000000000000000
0000               000000000000000000000000V                                                                                                                              00000000000000000000000000000000000000000000000000000000000Q        QQ00000000000000000000
0000               0000000000000000000000000V                                                                                                                               0000000000000000000000000000000000000000000000000000000000QQQ  QQQ0000000000000000000000
0000               00000000000000000000000000VV                                                                                                                              000000000000000000000000000000000000000000000000000000000000QQ0000000000000000000000000
0000                000000000000000000000000000VV                                                                                                                             00000000000000000000000000000000000000000000000000000000000000000000000000000000000000
0000                00000000000000000000000000000VVV                                                                                                                           0000000000000000000000000000000000000000000000000000000000000000000000000000000000000
0000                00000000000000000000000000000000VV                                                                                                                          000000000000000000000000000000000000000000000000000000000000000000000000000000000000
0000                 000000000000000000000000000000000VVV                                                                                                                        00000000000000000000000000000000000000000000000000000000000000000000000000000000000
0000                  00000000000000000000000000000000000VVVV                                                                                                                     0000000000000000000000000000000000000000000000000000000000000000000000000000000000
0000                    0000000000000000000000000000000000000VVVVVVVVVV                                                                                                            000000000000000000000000000000000000000000000000000000000000000000000000000000000
000055                    000000000000000000000000000000000000000000000V                                                                                                            00000000000000000000000000000000000000000000000000000000000000000000000000000000
00000055                    00000000000000000000000000000000000000000000VV                                                                                                          00000000000000000000000000000000000000000000000000000000000000000000000000000000
0000000055                    00000000000000000000000000000000000000000000V                                                                                                          0000000000000000000000000000000000000000000000000000000000000000000000000000000
0000000000                      0000000000000000000000000000000000000000000V                                                                                                          000000000000000000000000000000000000000000000000000000000000000000000000000000
00000000005                      0000000000000000000000000000000000000000000                                                                                                           00000000000000000000000000000000000000000000000000000000000000000000000000000
00000000000                       000000000000000000000000000000000000000000V                                                                                                           0000000000000000000000000000000000000000000000000000000000000000000000000000
0000000000                         000000000000000000000000000000000000000000                                                                                                           0000000000000000000000000000000000000000000000000000000000000000000000000000
0000000000                         000000000000000000000000000000000000000000V                                    DDDDDDD                                                                000000000000000000000000000000000000000000000000000000000000000000000000000
0000000000                          000000000000000000000000000000000000000000                                  DD0000000DD                                                               00000000000000000000000000000000000000000000000000000000000000000000000000
000000000                           00000000000000000000000000000000000000000                                 DD00000000000DD                                                               000000000000000000000000000000000000000000000000000000000000000000000000
0000000                             0000000000000000000000000000000000000000                                 D000000000000000D                          DDDDD                                00000000000000000000000000000000000000000000000000000000000000000000000
0000                                0000000000000000000000000000                                           DD00000000000000000D                       DD00000DD                                                                                                 0000
0000                                0000000000000000000000000                                             D00000000000000000000D                     D000000000D                                                                                                0000
0000                                00000000000000000000000                                             DD0000000000000000000000D                   D00000000000D                                                                                               0000
0000                                0000000000000000000000                                           DDD0000000000000000000000000D                 D0000000000000D                                                                                              0000
0000                                000000000000000000000                               DDDDDDDDDDDDD00000000000000000000000000000D              DD000000000000000D                                                                                             0000
0000                                00000000000000000000                              DD0000000000000000000000000000000000000000000DD           D000000000000000000D                                                                                            0000
0000                                000000000000000000                               D00000000000000000000000000000000000000000000000DD       DD00000000000000000000D                                                                                           0000
0000                                00000000000000000                                00000000000000000000000000000000000000000000000000DDDDDDD00000000000000000000000D                                                                                          0000
0000                                0000000000000000                                D000000000000000000000000000000000000000000000000000000000000000000000000000000000D                                                                                         0000
0000                                 00000000000000                                 00000000000000000000000000000000000000000000000000000000000000000000000000000000000                                                                                         0000
0000                                 0000000000000                                  00000000000000000000000000000000000000000000000000000000000000000000000000000000000D                                                                                        0000
0000                                 00000000000                                    000000000000000000000000000000000000000000000000000000000000000000000000000000000000                                                                                        0000
0000                                 0000000000                                     000000000000000000000000000000000000000000000000000000000000000000000000000000000000                                                                                        0000
0000                                  000000                                        000000000000000000000000000000000000000000000000000000000000000000000000000000000000D                                                                                       0000
0000                                                                               D0000000000000000000000000000000000000000000000000000000000000000000000000000000000000                                                                                       0000
0000                                                                               00000000000000000000000000000000000000000000000000000000000000000000000000000000000000                                                                                       0000
0000                                                                               0000000000000000000000000000000000000000000000000000000000000000000000000000000000000                                                                                        0000
0000                                                                               0000000000000000000000000000000000000000000000000000000000000000000000000000000000000                                                                                        0000
0000                                                                               0000000000000000000000000000000000000000000000000000000000000000000000000000000000000                                                                                        0000
0000                                                                               000000000000000000000000000000000000000000000000000000000000000000000000000000000000                                                                                         0000
0000                                                                               000000000000000000000000000000000000000000000000000000000000000000000000000000000000                                                                                       SS0000
0000                                                                               00000000000000000000000000000000000000000000000000000000000000000000000000000000000                                                                                      SS000000
00006                   9999999                                                     0000000000000000000000000000000000000000000000000000000000000000000000000000000000                                                                                    SS00000000
000006                990000000                                                     000000000000000000000000000000000000000000000000000000000000000000000000000000000                                                                                    S0000000000
000000              990000000009                                                    00000000000000000000000000000000000000000000000000000000000000000000000000000000                                       III                                           00000000000
000000             9000000000000                                                    00000000000000000000000000000000000000000000000000000000000000000000000000000000                                    III000III                                       S00000000000
000000             0000000000000                                                    0000000000000000000000000000000000000000000000000000000000000000000000000000000                                    I000000000II                                     000000000000
000000            900000000000009                                                   0000000000000000000000000000           000000000000000000000000000000000000000                                    I000000000000I                                   S000000000000
00000             000000000000000                                                    0000000000000000000000000               0000000000000000000000000000000000000                                   I00000000000000I                                  0000000000000
00000             000000000000000                                                    00000000000000000000000                   0000000000000000000000000000000000                                    0000000000000000I                                 0000000000000
0000               00000000000000                                                     00000000000000000000                      000000000000000000000000000000000                                   I00000000000000000II                                000000000000
0000               00000000000000                                                       0000000000000000                          0000000000000000000000000000000                                   00000000000000000000I                                00000000000
00007777777777777770000000000000099999999999999999999999999999999999999999999999999999990000000000000000EEEEEEEEEEEEEEEEEEEEEEEEEE0000000000000000000000000000000IIIIIIIIIIIIIIIIIIIIIIIIIIIIIIIIIII000000000000000000000IIIIIIIIIIIIIIIIIIIIIIIIIIIIIIII00000000000
00000000000000000000000000000000000000000000000000000000000000000000000000000000000000000000000000000000000000000000000000000000000000000000000000000000000000000000000000000000000000000000000000000000000000000000000000000000000000000000000000000000000000000000
00000000000000000000000000000000000000000000000000000000000000000000000000000000000000000000000000000000000000000000000000000000000000000000000000000000000000000000000000000000000000000000000000000000000000000000000000000000000000000000000000000000000000000000
